{
  "_format": "hh-sol-artifact-1",
  "contractName": "DexFuji",
  "sourceName": "contracts/DexFuji.sol",
  "abi": [
    {
      "inputs": [],
      "stateMutability": "nonpayable",
      "type": "constructor"
    },
    {
      "inputs": [
        {
          "internalType": "address",
          "name": "owner",
          "type": "address"
        }
      ],
      "name": "OwnableInvalidOwner",
      "type": "error"
    },
    {
      "inputs": [
        {
          "internalType": "address",
          "name": "account",
          "type": "address"
        }
      ],
      "name": "OwnableUnauthorizedAccount",
      "type": "error"
    },
    {
      "inputs": [
        {
          "internalType": "uint256",
          "name": "value",
          "type": "uint256"
        },
        {
          "internalType": "uint256",
          "name": "length",
          "type": "uint256"
        }
      ],
      "name": "StringsInsufficientHexLength",
      "type": "error"
    },
    {
      "anonymous": false,
      "inputs": [
        {
          "indexed": true,
          "internalType": "address",
          "name": "previousOwner",
          "type": "address"
        },
        {
          "indexed": true,
          "internalType": "address",
          "name": "newOwner",
          "type": "address"
        }
      ],
      "name": "OwnershipTransferred",
      "type": "event"
    },
    {
      "inputs": [],
      "name": "_historyIndex",
      "outputs": [
        {
          "internalType": "uint256",
          "name": "",
          "type": "uint256"
        }
      ],
      "stateMutability": "view",
      "type": "function"
    },
    {
      "inputs": [
        {
          "internalType": "address",
          "name": "_addr",
          "type": "address"
        },
        {
          "internalType": "string",
          "name": "_tokenName",
          "type": "string"
        },
        {
          "internalType": "uint256",
          "name": "_amount",
          "type": "uint256"
        }
      ],
      "name": "concatenate",
      "outputs": [
        {
          "internalType": "string",
          "name": "",
          "type": "string"
        }
      ],
      "stateMutability": "pure",
      "type": "function"
    },
    {
      "inputs": [],
      "name": "getAllHistory",
      "outputs": [
        {
          "components": [
            {
              "internalType": "uint256",
              "name": "historyId",
              "type": "uint256"
            },
            {
              "internalType": "string",
              "name": "tokenA",
              "type": "string"
            },
            {
              "internalType": "string",
              "name": "tokenB",
              "type": "string"
            },
            {
              "internalType": "uint256",
              "name": "inputValue",
              "type": "uint256"
            },
            {
              "internalType": "uint256",
              "name": "outputValue",
              "type": "uint256"
            },
            {
              "internalType": "address",
              "name": "userAddress",
              "type": "address"
            }
          ],
          "internalType": "struct DexFuji.History[]",
          "name": "",
          "type": "tuple[]"
        }
      ],
      "stateMutability": "view",
      "type": "function"
    },
    {
      "inputs": [
        {
          "internalType": "string",
          "name": "tokenName",
          "type": "string"
        }
      ],
      "name": "getBalance",
      "outputs": [
        {
          "internalType": "uint256",
          "name": "",
          "type": "uint256"
        }
      ],
      "stateMutability": "view",
      "type": "function"
    },
    {
      "inputs": [],
      "name": "getEthBalance",
      "outputs": [
        {
          "internalType": "uint256",
          "name": "",
          "type": "uint256"
        }
      ],
      "stateMutability": "view",
      "type": "function"
    },
    {
      "inputs": [],
      "name": "getSenderAddress",
      "outputs": [
        {
          "internalType": "address",
          "name": "",
          "type": "address"
        }
      ],
      "stateMutability": "view",
      "type": "function"
    },
    {
      "inputs": [
        {
          "internalType": "string",
          "name": "tokenName",
          "type": "string"
        }
      ],
      "name": "getTokenAddress",
      "outputs": [
        {
          "internalType": "address",
          "name": "",
          "type": "address"
        }
      ],
      "stateMutability": "view",
      "type": "function"
    },
    {
      "inputs": [],
      "name": "owner",
      "outputs": [
        {
          "internalType": "address",
          "name": "",
          "type": "address"
        }
      ],
      "stateMutability": "view",
      "type": "function"
    },
    {
      "inputs": [],
      "name": "renounceOwnership",
      "outputs": [],
      "stateMutability": "nonpayable",
      "type": "function"
    },
    {
      "inputs": [
        {
          "internalType": "address",
          "name": "_receiverCross",
          "type": "address"
        }
      ],
      "name": "setReceiverCross",
      "outputs": [],
      "stateMutability": "nonpayable",
      "type": "function"
    },
    {
      "inputs": [
        {
          "internalType": "address",
          "name": "_receiverSelf",
          "type": "address"
        }
      ],
      "name": "setReceiverSelf",
      "outputs": [],
      "stateMutability": "nonpayable",
      "type": "function"
    },
    {
      "inputs": [
        {
          "internalType": "string",
          "name": "tokenName",
          "type": "string"
        }
      ],
      "name": "swapEthToToken",
      "outputs": [
        {
          "internalType": "uint256",
          "name": "",
          "type": "uint256"
        },
        {
          "internalType": "address",
          "name": "",
          "type": "address"
        }
      ],
      "stateMutability": "payable",
      "type": "function"
    },
    {
      "inputs": [
        {
          "internalType": "string",
          "name": "srcTokenName",
          "type": "string"
        },
        {
          "internalType": "string",
          "name": "destToken",
          "type": "string"
        },
        {
          "internalType": "uint256",
          "name": "_amount",
          "type": "uint256"
        }
      ],
      "name": "swapTokenChainReceive",
      "outputs": [
        {
          "internalType": "string",
          "name": "",
          "type": "string"
        }
      ],
      "stateMutability": "nonpayable",
      "type": "function"
    },
    {
      "inputs": [
        {
          "internalType": "address",
          "name": "sendTokenTo",
          "type": "address"
        },
        {
          "internalType": "string",
          "name": "destTokenName",
          "type": "string"
        },
        {
          "internalType": "uint256",
          "name": "_amount",
          "type": "uint256"
        }
      ],
      "name": "swapTokenChainSend",
      "outputs": [],
      "stateMutability": "nonpayable",
      "type": "function"
    },
    {
      "inputs": [
        {
          "internalType": "string",
          "name": "srcTokenName",
          "type": "string"
        },
        {
          "internalType": "string",
          "name": "destTokenName",
          "type": "string"
        },
        {
          "internalType": "uint256",
          "name": "_amount",
          "type": "uint256"
        }
      ],
      "name": "swapTokenToToken",
      "outputs": [],
      "stateMutability": "nonpayable",
      "type": "function"
    },
    {
      "inputs": [
        {
          "internalType": "string",
          "name": "tokenName",
          "type": "string"
        },
        {
          "internalType": "uint256",
          "name": "_amount",
          "type": "uint256"
        }
      ],
      "name": "swapTokentoEth",
      "outputs": [
        {
          "internalType": "uint256",
          "name": "",
          "type": "uint256"
        }
      ],
      "stateMutability": "nonpayable",
      "type": "function"
    },
    {
      "inputs": [
        {
          "internalType": "string",
          "name": "",
          "type": "string"
        }
      ],
      "name": "tokenInstanceMap",
      "outputs": [
        {
          "internalType": "contract ERC20",
          "name": "",
          "type": "address"
        }
      ],
      "stateMutability": "view",
      "type": "function"
    },
    {
      "inputs": [
        {
          "internalType": "uint256",
          "name": "",
          "type": "uint256"
        }
      ],
      "name": "tokens",
      "outputs": [
        {
          "internalType": "string",
          "name": "",
          "type": "string"
        }
      ],
      "stateMutability": "view",
      "type": "function"
    },
    {
      "inputs": [
        {
          "internalType": "address",
          "name": "newOwner",
          "type": "address"
        }
      ],
      "name": "transferOwnership",
      "outputs": [],
      "stateMutability": "nonpayable",
      "type": "function"
    }
  ],
  "bytecode": "0x608060405260405180604001604052806040518060400160405280600681526020017f546f6b656e31000000000000000000000000000000000000000000000000000081525081526020016040518060400160405280600681526020017f546f6b656e320000000000000000000000000000000000000000000000000000815250815250600190600262000095929190620003fa565b5073f694e193200268f9a4868e4aa017a0118c9a8177730b9d5d9136855f6fec3c0993fee6e9ce8a297846604051620000ce906200045a565b620000db92919062000548565b604051809103906000f080158015620000f8573d6000803e3d6000fd5b50600260006101000a81548173ffffffffffffffffffffffffffffffffffffffff021916908373ffffffffffffffffffffffffffffffffffffffff16021790555067e1f4423f1bf587cd600360146101000a81548167ffffffffffffffff021916908367ffffffffffffffff16021790555064e8d4a510006006553480156200018057600080fd5b5033600073ffffffffffffffffffffffffffffffffffffffff168173ffffffffffffffffffffffffffffffffffffffff1603620001f75760006040517f1e4fbdf7000000000000000000000000000000000000000000000000000000008152600401620001ee919062000575565b60405180910390fd5b62000208816200033660201b60201c565b5060005b6001805490508110156200032f5760006001828154811062000233576200023262000592565b5b906000526020600020016001838154811062000254576200025362000592565b5b906000526020600020016040516200026c9062000468565b62000279929190620006db565b604051809103906000f08015801562000296573d6000803e3d6000fd5b50905080600560018481548110620002b357620002b262000592565b5b90600052602060002001604051620002cc9190620007b0565b908152602001604051809103902060006101000a81548173ffffffffffffffffffffffffffffffffffffffff021916908373ffffffffffffffffffffffffffffffffffffffff160217905550508080620003269062000802565b9150506200020c565b5062000b2d565b60008060009054906101000a900473ffffffffffffffffffffffffffffffffffffffff169050816000806101000a81548173ffffffffffffffffffffffffffffffffffffffff021916908373ffffffffffffffffffffffffffffffffffffffff1602179055508173ffffffffffffffffffffffffffffffffffffffff168173ffffffffffffffffffffffffffffffffffffffff167f8be0079c531659141344cd1fd0a4f28419497f9722a3daafe3b4186f6b6457e060405160405180910390a35050565b82805482825590600052602060002090810192821562000447579160200282015b828111156200044657825182908162000435919062000a46565b50916020019190600101906200041b565b5b50905062000456919062000476565b5090565b61173f806200353583390190565b6118258062004c7483390190565b5b808211156200049a57600081816200049091906200049e565b5060010162000477565b5090565b508054620004ac90620005f0565b6000825580601f10620004c05750620004e1565b601f016020900490600052602060002090810190620004e09190620004e4565b5b50565b5b80821115620004ff576000816000905550600101620004e5565b5090565b600073ffffffffffffffffffffffffffffffffffffffff82169050919050565b6000620005308262000503565b9050919050565b620005428162000523565b82525050565b60006040820190506200055f600083018562000537565b6200056e602083018462000537565b9392505050565b60006020820190506200058c600083018462000537565b92915050565b7f4e487b7100000000000000000000000000000000000000000000000000000000600052603260045260246000fd5b7f4e487b7100000000000000000000000000000000000000000000000000000000600052602260045260246000fd5b600060028204905060018216806200060957607f821691505b6020821081036200061f576200061e620005c1565b5b50919050565b600082825260208201905092915050565b60008190508160005260206000209050919050565b600081546200065a81620005f0565b62000666818662000625565b945060018216600081146200068457600181146200069b57620006d2565b60ff198316865281151560200286019350620006d2565b620006a68562000636565b60005b83811015620006ca57815481890152600182019150602081019050620006a9565b808801955050505b50505092915050565b60006040820190508181036000830152620006f781856200064b565b905081810360208301526200070d81846200064b565b90509392505050565b600081905092915050565b600081546200073081620005f0565b6200073c818662000716565b945060018216600081146200075a57600181146200077057620007a7565b60ff1983168652811515820286019350620007a7565b6200077b8562000636565b60005b838110156200079f578154818901526001820191506020810190506200077e565b838801955050505b50505092915050565b6000620007be828462000721565b915081905092915050565b7f4e487b7100000000000000000000000000000000000000000000000000000000600052601160045260246000fd5b6000819050919050565b60006200080f82620007f8565b91507fffffffffffffffffffffffffffffffffffffffffffffffffffffffffffffffff8203620008445762000843620007c9565b5b600182019050919050565b600081519050919050565b7f4e487b7100000000000000000000000000000000000000000000000000000000600052604160045260246000fd5b60006020601f8301049050919050565b600082821b905092915050565b600060088302620008d87fffffffffffffffffffffffffffffffffffffffffffffffffffffffffffffffff8262000899565b620008e4868362000899565b95508019841693508086168417925050509392505050565b6000819050919050565b600062000927620009216200091b84620007f8565b620008fc565b620007f8565b9050919050565b6000819050919050565b620009438362000906565b6200095b62000952826200092e565b848454620008a6565b825550505050565b600090565b6200097262000963565b6200097f81848462000938565b505050565b5b81811015620009a7576200099b60008262000968565b60018101905062000985565b5050565b601f821115620009f657620009c08162000636565b620009cb8462000889565b81016020851015620009db578190505b620009f3620009ea8562000889565b83018262000984565b50505b505050565b600082821c905092915050565b600062000a1b60001984600802620009fb565b1980831691505092915050565b600062000a36838362000a08565b9150826002028217905092915050565b62000a51826200084f565b67ffffffffffffffff81111562000a6d5762000a6c6200085a565b5b62000a798254620005f0565b62000a86828285620009ab565b600060209050601f83116001811462000abe576000841562000aa9578287015190505b62000ab5858262000a28565b86555062000b25565b601f19841662000ace8662000636565b60005b8281101562000af85784890151825560018201915060208501945060208101905062000ad1565b8683101562000b18578489015162000b14601f89168262000a08565b8355505b6001600288020188555050505b505050505050565b6129f88062000b3d6000396000f3fe6080604052600436106101145760003560e01c806370ed0ada116100a0578063c409123611610064578063c4091236146103a7578063cc2c0e2c146103e4578063d07e06851461040d578063d1ea873c1461044a578063f2fde38b1461048757610114565b806370ed0ada146102d4578063715018a6146102ff5780638da5cb5b14610316578063a93325ed14610341578063bf015aae1461037e57610114565b80633a51d246116100e75780633a51d246146101d557806342948e18146102125780634f64b2be1461023d5780635b4060eb1461027a57806363fcf7c5146102a357610114565b806319b3c12d146101195780632b03664b1461014457806337c53ad51461016d57806339c5891a146101aa575b600080fd5b34801561012557600080fd5b5061012e6104b0565b60405161013b9190611a55565b60405180910390f35b34801561015057600080fd5b5061016b60048036038101906101669190611c54565b6104b6565b005b34801561017957600080fd5b50610194600480360381019061018f9190611cc3565b61061b565b6040516101a19190611a55565b60405180910390f35b3480156101b657600080fd5b506101bf610819565b6040516101cc9190611f0e565b60405180910390f35b3480156101e157600080fd5b506101fc60048036038101906101f79190611f30565b610a9e565b6040516102099190611a55565b60405180910390f35b34801561021e57600080fd5b50610227610b5f565b6040516102349190611f88565b60405180910390f35b34801561024957600080fd5b50610264600480360381019061025f9190611fa3565b610b91565b604051610271919061201a565b60405180910390f35b34801561028657600080fd5b506102a1600480360381019061029c919061203c565b610c3d565b005b6102bd60048036038101906102b89190611f30565b610c89565b6040516102cb929190612069565b60405180910390f35b3480156102e057600080fd5b506102e9610dcf565b6040516102f69190611a55565b60405180910390f35b34801561030b57600080fd5b50610314610dd7565b005b34801561032257600080fd5b5061032b610deb565b6040516103389190611f88565b60405180910390f35b34801561034d57600080fd5b5061036860048036038101906103639190611f30565b610e14565b60405161037591906120f1565b60405180910390f35b34801561038a57600080fd5b506103a560048036038101906103a0919061210c565b610e5d565b005b3480156103b357600080fd5b506103ce60048036038101906103c99190611f30565b610ffa565b6040516103db9190611f88565b60405180910390f35b3480156103f057600080fd5b5061040b6004803603810190610406919061203c565b611042565b005b34801561041957600080fd5b50610434600480360381019061042f9190611c54565b61108e565b604051610441919061201a565b60405180910390f35b34801561045657600080fd5b50610471600480360381019061046c919061210c565b6110f1565b60405161047e919061201a565b60405180910390f35b34801561049357600080fd5b506104ae60048036038101906104a9919061203c565b6112f0565b005b60075481565b600460009054906101000a900473ffffffffffffffffffffffffffffffffffffffff1673ffffffffffffffffffffffffffffffffffffffff163373ffffffffffffffffffffffffffffffffffffffff161461051057600080fd5b60058260405161052091906121d3565b908152602001604051809103902060009054906101000a900473ffffffffffffffffffffffffffffffffffffffff1673ffffffffffffffffffffffffffffffffffffffff1663a9059cbb84836040518363ffffffff1660e01b81526004016105899291906121ea565b6020604051808303816000875af11580156105a8573d6000803e3d6000fd5b505050506040513d601f19601f820116820180604052508101906105cc919061224b565b6105d557600080fd5b6106166040518060400160405280600581526020017f63726f7373000000000000000000000000000000000000000000000000000000815250838384611376565b505050565b600080670de0b6b3a764000060065461063491906122d6565b8361063f9190612307565b905080471015610684576040517f08c379a000000000000000000000000000000000000000000000000000000000815260040161067b90612395565b60405180910390fd5b3373ffffffffffffffffffffffffffffffffffffffff166108fc829081150290604051600060405180830381858888f193505050501580156106ca573d6000803e3d6000fd5b506005846040516106db91906121d3565b908152602001604051809103902060009054906101000a900473ffffffffffffffffffffffffffffffffffffffff1673ffffffffffffffffffffffffffffffffffffffff166323b872dd3330866040518463ffffffff1660e01b8152600401610746939291906123b5565b6020604051808303816000875af1158015610765573d6000803e3d6000fd5b505050506040513d601f19601f82011682018060405250810190610789919061224b565b6107c8576040517f08c379a00000000000000000000000000000000000000000000000000000000081526004016107bf90612438565b60405180910390fd5b60006040518060400160405280600581526020017f4574686572000000000000000000000000000000000000000000000000000000815250905061080e85828685611376565b819250505092915050565b6060600060075490506000808267ffffffffffffffff81111561083f5761083e611afd565b5b60405190808252806020026020018201604052801561087857816020015b6108656119f0565b81526020019060019003908161085d5790505b50905060005b83811015610a945760006001826108959190612458565b90506000600860008381526020019081526020016000209050806040518060c0016040529081600082015481526020016001820180546108d4906124bb565b80601f0160208091040260200160405190810160405280929190818152602001828054610900906124bb565b801561094d5780601f106109225761010080835404028352916020019161094d565b820191906000526020600020905b81548152906001019060200180831161093057829003601f168201915b50505050508152602001600282018054610966906124bb565b80601f0160208091040260200160405190810160405280929190818152602001828054610992906124bb565b80156109df5780601f106109b4576101008083540402835291602001916109df565b820191906000526020600020905b8154815290600101906020018083116109c257829003601f168201915b5050505050815260200160038201548152602001600482015481526020016005820160009054906101000a900473ffffffffffffffffffffffffffffffffffffffff1673ffffffffffffffffffffffffffffffffffffffff1673ffffffffffffffffffffffffffffffffffffffff1681525050848681518110610a6557610a646124ec565b5b6020026020010181905250600185610a7d9190612458565b945050508080610a8c9061251b565b91505061087e565b5080935050505090565b6000600582604051610ab091906121d3565b908152602001604051809103902060009054906101000a900473ffffffffffffffffffffffffffffffffffffffff1673ffffffffffffffffffffffffffffffffffffffff166370a08231336040518263ffffffff1660e01b8152600401610b179190611f88565b602060405180830381865afa158015610b34573d6000803e3d6000fd5b505050506040513d601f19601f82011682018060405250810190610b589190612578565b9050919050565b6000610b69611436565b600260009054906101000a900473ffffffffffffffffffffffffffffffffffffffff16905090565b60018181548110610ba157600080fd5b906000526020600020016000915090508054610bbc906124bb565b80601f0160208091040260200160405190810160405280929190818152602001828054610be8906124bb565b8015610c355780601f10610c0a57610100808354040283529160200191610c35565b820191906000526020600020905b815481529060010190602001808311610c1857829003601f168201915b505050505081565b610c45611436565b80600460006101000a81548173ffffffffffffffffffffffffffffffffffffffff021916908373ffffffffffffffffffffffffffffffffffffffff16021790555050565b60008060003490506000600654670de0b6b3a7640000610ca991906122d6565b82610cb49190612307565b9050600585604051610cc691906121d3565b908152602001604051809103902060009054906101000a900473ffffffffffffffffffffffffffffffffffffffff1673ffffffffffffffffffffffffffffffffffffffff1663a9059cbb33836040518363ffffffff1660e01b8152600401610d2f9291906121ea565b6020604051808303816000875af1158015610d4e573d6000803e3d6000fd5b505050506040513d601f19601f82011682018060405250810190610d72919061224b565b610d7b57600080fd5b60006040518060400160405280600581526020017f45746865720000000000000000000000000000000000000000000000000000008152509050610dc186828585611376565b813394509450505050915091565b600047905090565b610ddf611436565b610de960006114bd565b565b60008060009054906101000a900473ffffffffffffffffffffffffffffffffffffffff16905090565b6005818051602081018201805184825260208301602085012081835280955050505050506000915054906101000a900473ffffffffffffffffffffffffffffffffffffffff1681565b600583604051610e6d91906121d3565b908152602001604051809103902060009054906101000a900473ffffffffffffffffffffffffffffffffffffffff1673ffffffffffffffffffffffffffffffffffffffff166323b872dd3330846040518463ffffffff1660e01b8152600401610ed8939291906123b5565b6020604051808303816000875af1158015610ef7573d6000803e3d6000fd5b505050506040513d601f19601f82011682018060405250810190610f1b919061224b565b610f2457600080fd5b600582604051610f3491906121d3565b908152602001604051809103902060009054906101000a900473ffffffffffffffffffffffffffffffffffffffff1673ffffffffffffffffffffffffffffffffffffffff1663a9059cbb33836040518363ffffffff1660e01b8152600401610f9d9291906121ea565b6020604051808303816000875af1158015610fbc573d6000803e3d6000fd5b505050506040513d601f19601f82011682018060405250810190610fe0919061224b565b610fe957600080fd5b610ff583838384611376565b505050565b600060058260405161100c91906121d3565b908152602001604051809103902060009054906101000a900473ffffffffffffffffffffffffffffffffffffffff169050919050565b61104a611436565b80600360006101000a81548173ffffffffffffffffffffffffffffffffffffffff021916908373ffffffffffffffffffffffffffffffffffffffff16021790555050565b606060006110b38573ffffffffffffffffffffffffffffffffffffffff166014611581565b905060006110c0846117c7565b90508185826040516020016110d7939291906125f1565b604051602081830303815290604052925050509392505050565b606060058460405161110391906121d3565b908152602001604051809103902060009054906101000a900473ffffffffffffffffffffffffffffffffffffffff1673ffffffffffffffffffffffffffffffffffffffff166323b872dd3330856040518463ffffffff1660e01b815260040161116e939291906123b5565b6020604051808303816000875af115801561118d573d6000803e3d6000fd5b505050506040513d601f19601f820116820180604052508101906111b1919061224b565b6111ba57600080fd5b6111fb846040518060400160405280600581526020017f63726f73730000000000000000000000000000000000000000000000000000008152508485611376565b600061120833858561108e565b9050600260009054906101000a900473ffffffffffffffffffffffffffffffffffffffff1673ffffffffffffffffffffffffffffffffffffffff16630eb5ad45600360149054906101000a900467ffffffffffffffff16600360009054906101000a900473ffffffffffffffffffffffffffffffffffffffff16846040518463ffffffff1660e01b81526004016112a19392919061265b565b6020604051808303816000875af11580156112c0573d6000803e3d6000fd5b505050506040513d601f19601f820116820180604052508101906112e491906126cf565b50809150509392505050565b6112f8611436565b600073ffffffffffffffffffffffffffffffffffffffff168173ffffffffffffffffffffffffffffffffffffffff160361136a5760006040517f1e4fbdf70000000000000000000000000000000000000000000000000000000081526004016113619190611f88565b60405180910390fd5b611373816114bd565b50565b600760008154809291906113899061251b565b9190505550600060075490506000600860008381526020019081526020016000209050818160000181905550338160050160006101000a81548173ffffffffffffffffffffffffffffffffffffffff021916908373ffffffffffffffffffffffffffffffffffffffff16021790555085816001019081611409919061289e565b508481600201908161141b919061289e565b50838160030181905550828160040181905550505050505050565b61143e611895565b73ffffffffffffffffffffffffffffffffffffffff1661145c610deb565b73ffffffffffffffffffffffffffffffffffffffff16146114bb5761147f611895565b6040517f118cdaa70000000000000000000000000000000000000000000000000000000081526004016114b29190611f88565b60405180910390fd5b565b60008060009054906101000a900473ffffffffffffffffffffffffffffffffffffffff169050816000806101000a81548173ffffffffffffffffffffffffffffffffffffffff021916908373ffffffffffffffffffffffffffffffffffffffff1602179055508173ffffffffffffffffffffffffffffffffffffffff168173ffffffffffffffffffffffffffffffffffffffff167f8be0079c531659141344cd1fd0a4f28419497f9722a3daafe3b4186f6b6457e060405160405180910390a35050565b60606000839050600060028460026115999190612307565b6115a39190612458565b67ffffffffffffffff8111156115bc576115bb611afd565b5b6040519080825280601f01601f1916602001820160405280156115ee5781602001600182028036833780820191505090505b5090507f300000000000000000000000000000000000000000000000000000000000000081600081518110611626576116256124ec565b5b60200101907effffffffffffffffffffffffffffffffffffffffffffffffffffffffffffff1916908160001a9053507f78000000000000000000000000000000000000000000000000000000000000008160018151811061168a576116896124ec565b5b60200101907effffffffffffffffffffffffffffffffffffffffffffffffffffffffffffff1916908160001a905350600060018560026116ca9190612307565b6116d49190612458565b90505b6001811115611774577f3031323334353637383961626364656600000000000000000000000000000000600f841660108110611716576117156124ec565b5b1a60f81b82828151811061172d5761172c6124ec565b5b60200101907effffffffffffffffffffffffffffffffffffffffffffffffffffffffffffff1916908160001a905350600483901c92508061176d90612970565b90506116d7565b50600082146117bc5784846040517fe22e27eb0000000000000000000000000000000000000000000000000000000081526004016117b3929190612999565b60405180910390fd5b809250505092915050565b6060600060016117d68461189d565b01905060008167ffffffffffffffff8111156117f5576117f4611afd565b5b6040519080825280601f01601f1916602001820160405280156118275781602001600182028036833780820191505090505b509050600082602001820190505b60011561188a578080600190039150507f3031323334353637383961626364656600000000000000000000000000000000600a86061a8153600a858161187e5761187d612278565b5b04945060008503611835575b819350505050919050565b600033905090565b600080600090507a184f03e93ff9f4daa797ed6e38ed64bf6a1f01000000000000000083106118fb577a184f03e93ff9f4daa797ed6e38ed64bf6a1f01000000000000000083816118f1576118f0612278565b5b0492506040810190505b6d04ee2d6d415b85acef81000000008310611938576d04ee2d6d415b85acef8100000000838161192e5761192d612278565b5b0492506020810190505b662386f26fc10000831061196757662386f26fc10000838161195d5761195c612278565b5b0492506010810190505b6305f5e1008310611990576305f5e100838161198657611985612278565b5b0492506008810190505b61271083106119b55761271083816119ab576119aa612278565b5b0492506004810190505b606483106119d857606483816119ce576119cd612278565b5b0492506002810190505b600a83106119e7576001810190505b80915050919050565b6040518060c001604052806000815260200160608152602001606081526020016000815260200160008152602001600073ffffffffffffffffffffffffffffffffffffffff1681525090565b6000819050919050565b611a4f81611a3c565b82525050565b6000602082019050611a6a6000830184611a46565b92915050565b6000604051905090565b600080fd5b600080fd5b600073ffffffffffffffffffffffffffffffffffffffff82169050919050565b6000611aaf82611a84565b9050919050565b611abf81611aa4565b8114611aca57600080fd5b50565b600081359050611adc81611ab6565b92915050565b600080fd5b600080fd5b6000601f19601f8301169050919050565b7f4e487b7100000000000000000000000000000000000000000000000000000000600052604160045260246000fd5b611b3582611aec565b810181811067ffffffffffffffff82111715611b5457611b53611afd565b5b80604052505050565b6000611b67611a70565b9050611b738282611b2c565b919050565b600067ffffffffffffffff821115611b9357611b92611afd565b5b611b9c82611aec565b9050602081019050919050565b82818337600083830152505050565b6000611bcb611bc684611b78565b611b5d565b905082815260208101848484011115611be757611be6611ae7565b5b611bf2848285611ba9565b509392505050565b600082601f830112611c0f57611c0e611ae2565b5b8135611c1f848260208601611bb8565b91505092915050565b611c3181611a3c565b8114611c3c57600080fd5b50565b600081359050611c4e81611c28565b92915050565b600080600060608486031215611c6d57611c6c611a7a565b5b6000611c7b86828701611acd565b935050602084013567ffffffffffffffff811115611c9c57611c9b611a7f565b5b611ca886828701611bfa565b9250506040611cb986828701611c3f565b9150509250925092565b60008060408385031215611cda57611cd9611a7a565b5b600083013567ffffffffffffffff811115611cf857611cf7611a7f565b5b611d0485828601611bfa565b9250506020611d1585828601611c3f565b9150509250929050565b600081519050919050565b600082825260208201905092915050565b6000819050602082019050919050565b611d5481611a3c565b82525050565b600081519050919050565b600082825260208201905092915050565b60005b83811015611d94578082015181840152602081019050611d79565b60008484015250505050565b6000611dab82611d5a565b611db58185611d65565b9350611dc5818560208601611d76565b611dce81611aec565b840191505092915050565b611de281611aa4565b82525050565b600060c083016000830151611e006000860182611d4b565b5060208301518482036020860152611e188282611da0565b91505060408301518482036040860152611e328282611da0565b9150506060830151611e476060860182611d4b565b506080830151611e5a6080860182611d4b565b5060a0830151611e6d60a0860182611dd9565b508091505092915050565b6000611e848383611de8565b905092915050565b6000602082019050919050565b6000611ea482611d1f565b611eae8185611d2a565b935083602082028501611ec085611d3b565b8060005b85811015611efc5784840389528151611edd8582611e78565b9450611ee883611e8c565b925060208a01995050600181019050611ec4565b50829750879550505050505092915050565b60006020820190508181036000830152611f288184611e99565b905092915050565b600060208284031215611f4657611f45611a7a565b5b600082013567ffffffffffffffff811115611f6457611f63611a7f565b5b611f7084828501611bfa565b91505092915050565b611f8281611aa4565b82525050565b6000602082019050611f9d6000830184611f79565b92915050565b600060208284031215611fb957611fb8611a7a565b5b6000611fc784828501611c3f565b91505092915050565b600082825260208201905092915050565b6000611fec82611d5a565b611ff68185611fd0565b9350612006818560208601611d76565b61200f81611aec565b840191505092915050565b600060208201905081810360008301526120348184611fe1565b905092915050565b60006020828403121561205257612051611a7a565b5b600061206084828501611acd565b91505092915050565b600060408201905061207e6000830185611a46565b61208b6020830184611f79565b9392505050565b6000819050919050565b60006120b76120b26120ad84611a84565b612092565b611a84565b9050919050565b60006120c98261209c565b9050919050565b60006120db826120be565b9050919050565b6120eb816120d0565b82525050565b600060208201905061210660008301846120e2565b92915050565b60008060006060848603121561212557612124611a7a565b5b600084013567ffffffffffffffff81111561214357612142611a7f565b5b61214f86828701611bfa565b935050602084013567ffffffffffffffff8111156121705761216f611a7f565b5b61217c86828701611bfa565b925050604061218d86828701611c3f565b9150509250925092565b600081905092915050565b60006121ad82611d5a565b6121b78185612197565b93506121c7818560208601611d76565b80840191505092915050565b60006121df82846121a2565b915081905092915050565b60006040820190506121ff6000830185611f79565b61220c6020830184611a46565b9392505050565b60008115159050919050565b61222881612213565b811461223357600080fd5b50565b6000815190506122458161221f565b92915050565b60006020828403121561226157612260611a7a565b5b600061226f84828501612236565b91505092915050565b7f4e487b7100000000000000000000000000000000000000000000000000000000600052601260045260246000fd5b7f4e487b7100000000000000000000000000000000000000000000000000000000600052601160045260246000fd5b60006122e182611a3c565b91506122ec83611a3c565b9250826122fc576122fb612278565b5b828204905092915050565b600061231282611a3c565b915061231d83611a3c565b925082820261232b81611a3c565b91508282048414831517612342576123416122a7565b5b5092915050565b7f4465782069732072756e6e696e67206c6f77206f6e2062616c616e63652e0000600082015250565b600061237f601e83611fd0565b915061238a82612349565b602082019050919050565b600060208201905081810360008301526123ae81612372565b9050919050565b60006060820190506123ca6000830186611f79565b6123d76020830185611f79565b6123e46040830184611a46565b949350505050565b7f546f6b656e205472616e73666572206661696c65642e00000000000000000000600082015250565b6000612422601683611fd0565b915061242d826123ec565b602082019050919050565b6000602082019050818103600083015261245181612415565b9050919050565b600061246382611a3c565b915061246e83611a3c565b9250828201905080821115612486576124856122a7565b5b92915050565b7f4e487b7100000000000000000000000000000000000000000000000000000000600052602260045260246000fd5b600060028204905060018216806124d357607f821691505b6020821081036124e6576124e561248c565b5b50919050565b7f4e487b7100000000000000000000000000000000000000000000000000000000600052603260045260246000fd5b600061252682611a3c565b91507fffffffffffffffffffffffffffffffffffffffffffffffffffffffffffffffff8203612558576125576122a7565b5b600182019050919050565b60008151905061257281611c28565b92915050565b60006020828403121561258e5761258d611a7a565b5b600061259c84828501612563565b91505092915050565b7f7c00000000000000000000000000000000000000000000000000000000000000600082015250565b60006125db600183612197565b91506125e6826125a5565b600182019050919050565b60006125fd82866121a2565b9150612608826125ce565b915061261482856121a2565b915061261f826125ce565b915061262b82846121a2565b9150819050949350505050565b600067ffffffffffffffff82169050919050565b61265581612638565b82525050565b6000606082019050612670600083018661264c565b61267d6020830185611f79565b818103604083015261268f8184611fe1565b9050949350505050565b6000819050919050565b6126ac81612699565b81146126b757600080fd5b50565b6000815190506126c9816126a3565b92915050565b6000602082840312156126e5576126e4611a7a565b5b60006126f3848285016126ba565b91505092915050565b60008190508160005260206000209050919050565b60006020601f8301049050919050565b600082821b905092915050565b60006008830261275e7fffffffffffffffffffffffffffffffffffffffffffffffffffffffffffffffff82612721565b6127688683612721565b95508019841693508086168417925050509392505050565b600061279b61279661279184611a3c565b612092565b611a3c565b9050919050565b6000819050919050565b6127b583612780565b6127c96127c1826127a2565b84845461272e565b825550505050565b600090565b6127de6127d1565b6127e98184846127ac565b505050565b5b8181101561280d576128026000826127d6565b6001810190506127ef565b5050565b601f82111561285257612823816126fc565b61282c84612711565b8101602085101561283b578190505b61284f61284785612711565b8301826127ee565b50505b505050565b600082821c905092915050565b600061287560001984600802612857565b1980831691505092915050565b600061288e8383612864565b9150826002028217905092915050565b6128a782611d5a565b67ffffffffffffffff8111156128c0576128bf611afd565b5b6128ca82546124bb565b6128d5828285612811565b600060209050601f83116001811461290857600084156128f6578287015190505b6129008582612882565b865550612968565b601f198416612916866126fc565b60005b8281101561293e57848901518255600182019150602085019450602081019050612919565b8683101561295b5784890151612957601f891682612864565b8355505b6001600288020188555050505b505050505050565b600061297b82611a3c565b91506000820361298e5761298d6122a7565b5b600182039050919050565b60006040820190506129ae6000830185611a46565b6129bb6020830184611a46565b939250505056fea2646970667358221220e6b5582e266a0a066a9d6f4d036b81f6a7f97a12e94040e611c6631212729ac564736f6c6343000814003360806040523480156200001157600080fd5b506040516200173f3803806200173f833981810160405281019062000037919062000359565b338060008073ffffffffffffffffffffffffffffffffffffffff168273ffffffffffffffffffffffffffffffffffffffff1603620000ac576040517f08c379a0000000000000000000000000000000000000000000000000000000008152600401620000a39062000401565b60405180910390fd5b816000806101000a81548173ffffffffffffffffffffffffffffffffffffffff021916908373ffffffffffffffffffffffffffffffffffffffff160217905550600073ffffffffffffffffffffffffffffffffffffffff168173ffffffffffffffffffffffffffffffffffffffff161462000133576200013281620001c060201b60201c565b5b50505081600260006101000a81548173ffffffffffffffffffffffffffffffffffffffff021916908373ffffffffffffffffffffffffffffffffffffffff16021790555080600360006101000a81548173ffffffffffffffffffffffffffffffffffffffff021916908373ffffffffffffffffffffffffffffffffffffffff160217905550505062000495565b3373ffffffffffffffffffffffffffffffffffffffff168173ffffffffffffffffffffffffffffffffffffffff160362000231576040517f08c379a0000000000000000000000000000000000000000000000000000000008152600401620002289062000473565b60405180910390fd5b80600160006101000a81548173ffffffffffffffffffffffffffffffffffffffff021916908373ffffffffffffffffffffffffffffffffffffffff1602179055508073ffffffffffffffffffffffffffffffffffffffff1660008054906101000a900473ffffffffffffffffffffffffffffffffffffffff1673ffffffffffffffffffffffffffffffffffffffff167fed8889f560326eb138920d842192f0eb3dd22b4f139c87a2c57538e05bae127860405160405180910390a350565b600080fd5b600073ffffffffffffffffffffffffffffffffffffffff82169050919050565b60006200032182620002f4565b9050919050565b620003338162000314565b81146200033f57600080fd5b50565b600081519050620003538162000328565b92915050565b60008060408385031215620003735762000372620002ef565b5b6000620003838582860162000342565b9250506020620003968582860162000342565b9150509250929050565b600082825260208201905092915050565b7f43616e6e6f7420736574206f776e657220746f207a65726f0000000000000000600082015250565b6000620003e9601883620003a0565b9150620003f682620003b1565b602082019050919050565b600060208201905081810360008301526200041c81620003da565b9050919050565b7f43616e6e6f74207472616e7366657220746f2073656c66000000000000000000600082015250565b60006200045b601783620003a0565b9150620004688262000423565b602082019050919050565b600060208201905081810360008301526200048e816200044c565b9050919050565b61129a80620004a56000396000f3fe608060405234801561001057600080fd5b506004361061004c5760003560e01c80630eb5ad451461005157806379ba5097146100815780638da5cb5b1461008b578063f2fde38b146100a9575b600080fd5b61006b60048036038101906100669190610b24565b6100c5565b6040516100789190610bb1565b60405180910390f35b6100896105da565b005b61009361076f565b6040516100a09190610bdb565b60405180910390f35b6100c360048036038101906100be9190610bf6565b610798565b005b60006100cf6107ac565b60006040518060a00160405280866040516020016100ed9190610bdb565b60405160208183030381529060405281526020018585604051602001610114929190610c81565b6040516020818303038152906040528152602001600067ffffffffffffffff81111561014357610142610ca5565b5b60405190808252806020026020018201604052801561017c57816020015b6101696109e7565b8152602001906001900390816101615790505b508152602001600360009054906101000a900473ffffffffffffffffffffffffffffffffffffffff1673ffffffffffffffffffffffffffffffffffffffff1681526020016101da604051806020016040528062030d4081525061083c565b81525090506000600260009054906101000a900473ffffffffffffffffffffffffffffffffffffffff1673ffffffffffffffffffffffffffffffffffffffff166320487ded88846040518363ffffffff1660e01b815260040161023e929190610ef3565b602060405180830381865afa15801561025b573d6000803e3d6000fd5b505050506040513d601f19601f8201168201806040525081019061027f9190610f4f565b9050600360009054906101000a900473ffffffffffffffffffffffffffffffffffffffff1673ffffffffffffffffffffffffffffffffffffffff166370a08231306040518263ffffffff1660e01b81526004016102dc9190610bdb565b602060405180830381865afa1580156102f9573d6000803e3d6000fd5b505050506040513d601f19601f8201168201806040525081019061031d9190610f4f565b8111156103fe57600360009054906101000a900473ffffffffffffffffffffffffffffffffffffffff1673ffffffffffffffffffffffffffffffffffffffff166370a08231306040518263ffffffff1660e01b815260040161037f9190610bdb565b602060405180830381865afa15801561039c573d6000803e3d6000fd5b505050506040513d601f19601f820116820180604052508101906103c09190610f4f565b816040517f8f0f42060000000000000000000000000000000000000000000000000000000081526004016103f5929190610f8b565b60405180910390fd5b600360009054906101000a900473ffffffffffffffffffffffffffffffffffffffff1673ffffffffffffffffffffffffffffffffffffffff1663095ea7b3600260009054906101000a900473ffffffffffffffffffffffffffffffffffffffff16836040518363ffffffff1660e01b815260040161047d929190610fb4565b6020604051808303816000875af115801561049c573d6000803e3d6000fd5b505050506040513d601f19601f820116820180604052508101906104c09190611015565b50600260009054906101000a900473ffffffffffffffffffffffffffffffffffffffff1673ffffffffffffffffffffffffffffffffffffffff166396f4e9f988846040518363ffffffff1660e01b815260040161051e929190610ef3565b6020604051808303816000875af115801561053d573d6000803e3d6000fd5b505050506040513d601f19601f82011682018060405250810190610561919061106e565b92508667ffffffffffffffff16837fd36445359b3c6e26c120659aef090ce0f2eb005cf9af450d11aa1225609b4f4d888888600360009054906101000a900473ffffffffffffffffffffffffffffffffffffffff16876040516105c895949392919061109b565b60405180910390a35050949350505050565b600160009054906101000a900473ffffffffffffffffffffffffffffffffffffffff1673ffffffffffffffffffffffffffffffffffffffff163373ffffffffffffffffffffffffffffffffffffffff161461066a576040517f08c379a000000000000000000000000000000000000000000000000000000000815260040161066190611135565b60405180910390fd5b60008060009054906101000a900473ffffffffffffffffffffffffffffffffffffffff169050336000806101000a81548173ffffffffffffffffffffffffffffffffffffffff021916908373ffffffffffffffffffffffffffffffffffffffff1602179055506000600160006101000a81548173ffffffffffffffffffffffffffffffffffffffff021916908373ffffffffffffffffffffffffffffffffffffffff1602179055503373ffffffffffffffffffffffffffffffffffffffff168173ffffffffffffffffffffffffffffffffffffffff167f8be0079c531659141344cd1fd0a4f28419497f9722a3daafe3b4186f6b6457e060405160405180910390a350565b60008060009054906101000a900473ffffffffffffffffffffffffffffffffffffffff16905090565b6107a06107ac565b6107a9816108bb565b50565b60008054906101000a900473ffffffffffffffffffffffffffffffffffffffff1673ffffffffffffffffffffffffffffffffffffffff163373ffffffffffffffffffffffffffffffffffffffff161461083a576040517f08c379a0000000000000000000000000000000000000000000000000000000008152600401610831906111a1565b60405180910390fd5b565b60606397a657c960e01b8260405160240161085791906111dd565b604051602081830303815290604052907bffffffffffffffffffffffffffffffffffffffffffffffffffffffff19166020820180517bffffffffffffffffffffffffffffffffffffffffffffffffffffffff83818316178352505050509050919050565b3373ffffffffffffffffffffffffffffffffffffffff168173ffffffffffffffffffffffffffffffffffffffff1603610929576040517f08c379a000000000000000000000000000000000000000000000000000000000815260040161092090611244565b60405180910390fd5b80600160006101000a81548173ffffffffffffffffffffffffffffffffffffffff021916908373ffffffffffffffffffffffffffffffffffffffff1602179055508073ffffffffffffffffffffffffffffffffffffffff1660008054906101000a900473ffffffffffffffffffffffffffffffffffffffff1673ffffffffffffffffffffffffffffffffffffffff167fed8889f560326eb138920d842192f0eb3dd22b4f139c87a2c57538e05bae127860405160405180910390a350565b6040518060400160405280600073ffffffffffffffffffffffffffffffffffffffff168152602001600081525090565b600080fd5b600080fd5b600067ffffffffffffffff82169050919050565b610a3e81610a21565b8114610a4957600080fd5b50565b600081359050610a5b81610a35565b92915050565b600073ffffffffffffffffffffffffffffffffffffffff82169050919050565b6000610a8c82610a61565b9050919050565b610a9c81610a81565b8114610aa757600080fd5b50565b600081359050610ab981610a93565b92915050565b600080fd5b600080fd5b600080fd5b60008083601f840112610ae457610ae3610abf565b5b8235905067ffffffffffffffff811115610b0157610b00610ac4565b5b602083019150836001820283011115610b1d57610b1c610ac9565b5b9250929050565b60008060008060608587031215610b3e57610b3d610a17565b5b6000610b4c87828801610a4c565b9450506020610b5d87828801610aaa565b935050604085013567ffffffffffffffff811115610b7e57610b7d610a1c565b5b610b8a87828801610ace565b925092505092959194509250565b6000819050919050565b610bab81610b98565b82525050565b6000602082019050610bc66000830184610ba2565b92915050565b610bd581610a81565b82525050565b6000602082019050610bf06000830184610bcc565b92915050565b600060208284031215610c0c57610c0b610a17565b5b6000610c1a84828501610aaa565b91505092915050565b600082825260208201905092915050565b82818337600083830152505050565b6000601f19601f8301169050919050565b6000610c608385610c23565b9350610c6d838584610c34565b610c7683610c43565b840190509392505050565b60006020820190508181036000830152610c9c818486610c54565b90509392505050565b7f4e487b7100000000000000000000000000000000000000000000000000000000600052604160045260246000fd5b610cdd81610a21565b82525050565b600081519050919050565b600082825260208201905092915050565b60005b83811015610d1d578082015181840152602081019050610d02565b60008484015250505050565b6000610d3482610ce3565b610d3e8185610cee565b9350610d4e818560208601610cff565b610d5781610c43565b840191505092915050565b600081519050919050565b600082825260208201905092915050565b6000819050602082019050919050565b610d9781610a81565b82525050565b6000819050919050565b610db081610d9d565b82525050565b604082016000820151610dcc6000850182610d8e565b506020820151610ddf6020850182610da7565b50505050565b6000610df18383610db6565b60408301905092915050565b6000602082019050919050565b6000610e1582610d62565b610e1f8185610d6d565b9350610e2a83610d7e565b8060005b83811015610e5b578151610e428882610de5565b9750610e4d83610dfd565b925050600181019050610e2e565b5085935050505092915050565b600060a0830160008301518482036000860152610e858282610d29565b91505060208301518482036020860152610e9f8282610d29565b91505060408301518482036040860152610eb98282610e0a565b9150506060830151610ece6060860182610d8e565b5060808301518482036080860152610ee68282610d29565b9150508091505092915050565b6000604082019050610f086000830185610cd4565b8181036020830152610f1a8184610e68565b90509392505050565b610f2c81610d9d565b8114610f3757600080fd5b50565b600081519050610f4981610f23565b92915050565b600060208284031215610f6557610f64610a17565b5b6000610f7384828501610f3a565b91505092915050565b610f8581610d9d565b82525050565b6000604082019050610fa06000830185610f7c565b610fad6020830184610f7c565b9392505050565b6000604082019050610fc96000830185610bcc565b610fd66020830184610f7c565b9392505050565b60008115159050919050565b610ff281610fdd565b8114610ffd57600080fd5b50565b60008151905061100f81610fe9565b92915050565b60006020828403121561102b5761102a610a17565b5b600061103984828501611000565b91505092915050565b61104b81610b98565b811461105657600080fd5b50565b60008151905061106881611042565b92915050565b60006020828403121561108457611083610a17565b5b600061109284828501611059565b91505092915050565b60006080820190506110b06000830188610bcc565b81810360208301526110c3818688610c54565b90506110d26040830185610bcc565b6110df6060830184610f7c565b9695505050505050565b7f4d7573742062652070726f706f736564206f776e657200000000000000000000600082015250565b600061111f601683610c23565b915061112a826110e9565b602082019050919050565b6000602082019050818103600083015261114e81611112565b9050919050565b7f4f6e6c792063616c6c61626c65206279206f776e657200000000000000000000600082015250565b600061118b601683610c23565b915061119682611155565b602082019050919050565b600060208201905081810360008301526111ba8161117e565b9050919050565b6020820160008201516111d76000850182610da7565b50505050565b60006020820190506111f260008301846111c1565b92915050565b7f43616e6e6f74207472616e7366657220746f2073656c66000000000000000000600082015250565b600061122e601783610c23565b9150611239826111f8565b602082019050919050565b6000602082019050818103600083015261125d81611221565b905091905056fea2646970667358221220a15224b6191d54a131863122b69546a1a8f9b9d27ccb569f4391a5ea13d926e864736f6c6343000814003360806040523480156200001157600080fd5b5060405162001825380380620018258339818101604052810190620000379190620004d2565b818181600390816200004a9190620007a2565b5080600490816200005c9190620007a2565b5050506200007a33683635c9adc5dea000006200008260201b60201c565b5050620009c0565b600073ffffffffffffffffffffffffffffffffffffffff168273ffffffffffffffffffffffffffffffffffffffff1603620000f75760006040517fec442f05000000000000000000000000000000000000000000000000000000008152600401620000ee9190620008ce565b60405180910390fd5b6200010b600083836200010f60201b60201c565b5050565b600073ffffffffffffffffffffffffffffffffffffffff168373ffffffffffffffffffffffffffffffffffffffff1603620001655780600260008282546200015891906200091a565b925050819055506200023b565b60008060008573ffffffffffffffffffffffffffffffffffffffff1673ffffffffffffffffffffffffffffffffffffffff16815260200190815260200160002054905081811015620001f4578381836040517fe450d38c000000000000000000000000000000000000000000000000000000008152600401620001eb9392919062000966565b60405180910390fd5b8181036000808673ffffffffffffffffffffffffffffffffffffffff1673ffffffffffffffffffffffffffffffffffffffff16815260200190815260200160002081905550505b600073ffffffffffffffffffffffffffffffffffffffff168273ffffffffffffffffffffffffffffffffffffffff1603620002865780600260008282540392505081905550620002d3565b806000808473ffffffffffffffffffffffffffffffffffffffff1673ffffffffffffffffffffffffffffffffffffffff168152602001908152602001600020600082825401925050819055505b8173ffffffffffffffffffffffffffffffffffffffff168373ffffffffffffffffffffffffffffffffffffffff167fddf252ad1be2c89b69c2b068fc378daa952ba7f163c4a11628f55a4df523b3ef83604051620003329190620009a3565b60405180910390a3505050565b6000604051905090565b600080fd5b600080fd5b600080fd5b600080fd5b6000601f19601f8301169050919050565b7f4e487b7100000000000000000000000000000000000000000000000000000000600052604160045260246000fd5b620003a8826200035d565b810181811067ffffffffffffffff82111715620003ca57620003c96200036e565b5b80604052505050565b6000620003df6200033f565b9050620003ed82826200039d565b919050565b600067ffffffffffffffff82111562000410576200040f6200036e565b5b6200041b826200035d565b9050602081019050919050565b60005b83811015620004485780820151818401526020810190506200042b565b60008484015250505050565b60006200046b6200046584620003f2565b620003d3565b9050828152602081018484840111156200048a576200048962000358565b5b6200049784828562000428565b509392505050565b600082601f830112620004b757620004b662000353565b5b8151620004c984826020860162000454565b91505092915050565b60008060408385031215620004ec57620004eb62000349565b5b600083015167ffffffffffffffff8111156200050d576200050c6200034e565b5b6200051b858286016200049f565b925050602083015167ffffffffffffffff8111156200053f576200053e6200034e565b5b6200054d858286016200049f565b9150509250929050565b600081519050919050565b7f4e487b7100000000000000000000000000000000000000000000000000000000600052602260045260246000fd5b60006002820490506001821680620005aa57607f821691505b602082108103620005c057620005bf62000562565b5b50919050565b60008190508160005260206000209050919050565b60006020601f8301049050919050565b600082821b905092915050565b6000600883026200062a7fffffffffffffffffffffffffffffffffffffffffffffffffffffffffffffffff82620005eb565b620006368683620005eb565b95508019841693508086168417925050509392505050565b6000819050919050565b6000819050919050565b6000620006836200067d62000677846200064e565b62000658565b6200064e565b9050919050565b6000819050919050565b6200069f8362000662565b620006b7620006ae826200068a565b848454620005f8565b825550505050565b600090565b620006ce620006bf565b620006db81848462000694565b505050565b5b818110156200070357620006f7600082620006c4565b600181019050620006e1565b5050565b601f82111562000752576200071c81620005c6565b6200072784620005db565b8101602085101562000737578190505b6200074f6200074685620005db565b830182620006e0565b50505b505050565b600082821c905092915050565b6000620007776000198460080262000757565b1980831691505092915050565b600062000792838362000764565b9150826002028217905092915050565b620007ad8262000557565b67ffffffffffffffff811115620007c957620007c86200036e565b5b620007d5825462000591565b620007e282828562000707565b600060209050601f8311600181146200081a576000841562000805578287015190505b62000811858262000784565b86555062000881565b601f1984166200082a86620005c6565b60005b8281101562000854578489015182556001820191506020850194506020810190506200082d565b8683101562000874578489015162000870601f89168262000764565b8355505b6001600288020188555050505b505050505050565b600073ffffffffffffffffffffffffffffffffffffffff82169050919050565b6000620008b68262000889565b9050919050565b620008c881620008a9565b82525050565b6000602082019050620008e56000830184620008bd565b92915050565b7f4e487b7100000000000000000000000000000000000000000000000000000000600052601160045260246000fd5b600062000927826200064e565b915062000934836200064e565b92508282019050808211156200094f576200094e620008eb565b5b92915050565b62000960816200064e565b82525050565b60006060820190506200097d6000830186620008bd565b6200098c602083018562000955565b6200099b604083018462000955565b949350505050565b6000602082019050620009ba600083018462000955565b92915050565b610e5580620009d06000396000f3fe608060405234801561001057600080fd5b50600436106100935760003560e01c8063313ce56711610066578063313ce5671461013457806370a082311461015257806395d89b4114610182578063a9059cbb146101a0578063dd62ed3e146101d057610093565b806306fdde0314610098578063095ea7b3146100b657806318160ddd146100e657806323b872dd14610104575b600080fd5b6100a0610200565b6040516100ad9190610aa9565b60405180910390f35b6100d060048036038101906100cb9190610b64565b610292565b6040516100dd9190610bbf565b60405180910390f35b6100ee6102b5565b6040516100fb9190610be9565b60405180910390f35b61011e60048036038101906101199190610c04565b6102bf565b60405161012b9190610bbf565b60405180910390f35b61013c6102ee565b6040516101499190610c73565b60405180910390f35b61016c60048036038101906101679190610c8e565b6102f7565b6040516101799190610be9565b60405180910390f35b61018a61033f565b6040516101979190610aa9565b60405180910390f35b6101ba60048036038101906101b59190610b64565b6103d1565b6040516101c79190610bbf565b60405180910390f35b6101ea60048036038101906101e59190610cbb565b6103f4565b6040516101f79190610be9565b60405180910390f35b60606003805461020f90610d2a565b80601f016020809104026020016040519081016040528092919081815260200182805461023b90610d2a565b80156102885780601f1061025d57610100808354040283529160200191610288565b820191906000526020600020905b81548152906001019060200180831161026b57829003601f168201915b5050505050905090565b60008061029d61047b565b90506102aa818585610483565b600191505092915050565b6000600254905090565b6000806102ca61047b565b90506102d7858285610495565b6102e2858585610529565b60019150509392505050565b60006012905090565b60008060008373ffffffffffffffffffffffffffffffffffffffff1673ffffffffffffffffffffffffffffffffffffffff168152602001908152602001600020549050919050565b60606004805461034e90610d2a565b80601f016020809104026020016040519081016040528092919081815260200182805461037a90610d2a565b80156103c75780601f1061039c576101008083540402835291602001916103c7565b820191906000526020600020905b8154815290600101906020018083116103aa57829003601f168201915b5050505050905090565b6000806103dc61047b565b90506103e9818585610529565b600191505092915050565b6000600160008473ffffffffffffffffffffffffffffffffffffffff1673ffffffffffffffffffffffffffffffffffffffff16815260200190815260200160002060008373ffffffffffffffffffffffffffffffffffffffff1673ffffffffffffffffffffffffffffffffffffffff16815260200190815260200160002054905092915050565b600033905090565b610490838383600161061d565b505050565b60006104a184846103f4565b90507fffffffffffffffffffffffffffffffffffffffffffffffffffffffffffffffff81146105235781811015610513578281836040517ffb8f41b200000000000000000000000000000000000000000000000000000000815260040161050a93929190610d6a565b60405180910390fd5b6105228484848403600061061d565b5b50505050565b600073ffffffffffffffffffffffffffffffffffffffff168373ffffffffffffffffffffffffffffffffffffffff160361059b5760006040517f96c6fd1e0000000000000000000000000000000000000000000000000000000081526004016105929190610da1565b60405180910390fd5b600073ffffffffffffffffffffffffffffffffffffffff168273ffffffffffffffffffffffffffffffffffffffff160361060d5760006040517fec442f050000000000000000000000000000000000000000000000000000000081526004016106049190610da1565b60405180910390fd5b6106188383836107f4565b505050565b600073ffffffffffffffffffffffffffffffffffffffff168473ffffffffffffffffffffffffffffffffffffffff160361068f5760006040517fe602df050000000000000000000000000000000000000000000000000000000081526004016106869190610da1565b60405180910390fd5b600073ffffffffffffffffffffffffffffffffffffffff168373ffffffffffffffffffffffffffffffffffffffff16036107015760006040517f94280d620000000000000000000000000000000000000000000000000000000081526004016106f89190610da1565b60405180910390fd5b81600160008673ffffffffffffffffffffffffffffffffffffffff1673ffffffffffffffffffffffffffffffffffffffff16815260200190815260200160002060008573ffffffffffffffffffffffffffffffffffffffff1673ffffffffffffffffffffffffffffffffffffffff1681526020019081526020016000208190555080156107ee578273ffffffffffffffffffffffffffffffffffffffff168473ffffffffffffffffffffffffffffffffffffffff167f8c5be1e5ebec7d5bd14f71427d1e84f3dd0314c0f7b2291e5b200ac8c7c3b925846040516107e59190610be9565b60405180910390a35b50505050565b600073ffffffffffffffffffffffffffffffffffffffff168373ffffffffffffffffffffffffffffffffffffffff160361084657806002600082825461083a9190610deb565b92505081905550610919565b60008060008573ffffffffffffffffffffffffffffffffffffffff1673ffffffffffffffffffffffffffffffffffffffff168152602001908152602001600020549050818110156108d2578381836040517fe450d38c0000000000000000000000000000000000000000000000000000000081526004016108c993929190610d6a565b60405180910390fd5b8181036000808673ffffffffffffffffffffffffffffffffffffffff1673ffffffffffffffffffffffffffffffffffffffff16815260200190815260200160002081905550505b600073ffffffffffffffffffffffffffffffffffffffff168273ffffffffffffffffffffffffffffffffffffffff160361096257806002600082825403925050819055506109af565b806000808473ffffffffffffffffffffffffffffffffffffffff1673ffffffffffffffffffffffffffffffffffffffff168152602001908152602001600020600082825401925050819055505b8173ffffffffffffffffffffffffffffffffffffffff168373ffffffffffffffffffffffffffffffffffffffff167fddf252ad1be2c89b69c2b068fc378daa952ba7f163c4a11628f55a4df523b3ef83604051610a0c9190610be9565b60405180910390a3505050565b600081519050919050565b600082825260208201905092915050565b60005b83811015610a53578082015181840152602081019050610a38565b60008484015250505050565b6000601f19601f8301169050919050565b6000610a7b82610a19565b610a858185610a24565b9350610a95818560208601610a35565b610a9e81610a5f565b840191505092915050565b60006020820190508181036000830152610ac38184610a70565b905092915050565b600080fd5b600073ffffffffffffffffffffffffffffffffffffffff82169050919050565b6000610afb82610ad0565b9050919050565b610b0b81610af0565b8114610b1657600080fd5b50565b600081359050610b2881610b02565b92915050565b6000819050919050565b610b4181610b2e565b8114610b4c57600080fd5b50565b600081359050610b5e81610b38565b92915050565b60008060408385031215610b7b57610b7a610acb565b5b6000610b8985828601610b19565b9250506020610b9a85828601610b4f565b9150509250929050565b60008115159050919050565b610bb981610ba4565b82525050565b6000602082019050610bd46000830184610bb0565b92915050565b610be381610b2e565b82525050565b6000602082019050610bfe6000830184610bda565b92915050565b600080600060608486031215610c1d57610c1c610acb565b5b6000610c2b86828701610b19565b9350506020610c3c86828701610b19565b9250506040610c4d86828701610b4f565b9150509250925092565b600060ff82169050919050565b610c6d81610c57565b82525050565b6000602082019050610c886000830184610c64565b92915050565b600060208284031215610ca457610ca3610acb565b5b6000610cb284828501610b19565b91505092915050565b60008060408385031215610cd257610cd1610acb565b5b6000610ce085828601610b19565b9250506020610cf185828601610b19565b9150509250929050565b7f4e487b7100000000000000000000000000000000000000000000000000000000600052602260045260246000fd5b60006002820490506001821680610d4257607f821691505b602082108103610d5557610d54610cfb565b5b50919050565b610d6481610af0565b82525050565b6000606082019050610d7f6000830186610d5b565b610d8c6020830185610bda565b610d996040830184610bda565b949350505050565b6000602082019050610db66000830184610d5b565b92915050565b7f4e487b7100000000000000000000000000000000000000000000000000000000600052601160045260246000fd5b6000610df682610b2e565b9150610e0183610b2e565b9250828201905080821115610e1957610e18610dbc565b5b9291505056fea26469706673582212200fc8e24ab7484da3416492ac1c046cfce05e7cea32b56b858cbba6bf9a048a5264736f6c63430008140033",
  "linkReferences": {},
  "deployedLinkReferences": {}
}